{
  "contractName": "Fundraiser",
  "abi": [
    {
      "inputs": [
        {
          "internalType": "string",
          "name": "_name",
          "type": "string"
        },
        {
          "internalType": "string",
          "name": "_url",
          "type": "string"
        },
        {
          "internalType": "string",
          "name": "_imageURL",
          "type": "string"
        },
        {
          "internalType": "string",
          "name": "_description",
          "type": "string"
        },
        {
          "internalType": "address payable",
          "name": "_beneficiary",
          "type": "address"
        },
        {
          "internalType": "address",
          "name": "_custodian",
          "type": "address"
        }
      ],
      "stateMutability": "nonpayable",
      "type": "constructor"
    },
    {
      "anonymous": false,
      "inputs": [
        {
          "indexed": true,
          "internalType": "address",
          "name": "donor",
          "type": "address"
        },
        {
          "indexed": false,
          "internalType": "uint256",
          "name": "value",
          "type": "uint256"
        }
      ],
      "name": "DonationReceived",
      "type": "event"
    },
    {
      "anonymous": false,
      "inputs": [
        {
          "indexed": true,
          "internalType": "address",
          "name": "previousOwner",
          "type": "address"
        },
        {
          "indexed": true,
          "internalType": "address",
          "name": "newOwner",
          "type": "address"
        }
      ],
      "name": "OwnershipTransferred",
      "type": "event"
    },
    {
      "anonymous": false,
      "inputs": [
        {
          "indexed": false,
          "internalType": "uint256",
          "name": "amount",
          "type": "uint256"
        }
      ],
      "name": "Withdraw",
      "type": "event"
    },
    {
      "stateMutability": "payable",
      "type": "fallback"
    },
    {
      "inputs": [],
      "name": "beneficiary",
      "outputs": [
        {
          "internalType": "address payable",
          "name": "",
          "type": "address"
        }
      ],
      "stateMutability": "view",
      "type": "function"
    },
    {
      "inputs": [],
      "name": "custodian",
      "outputs": [
        {
          "internalType": "address",
          "name": "",
          "type": "address"
        }
      ],
      "stateMutability": "view",
      "type": "function"
    },
    {
      "inputs": [],
      "name": "description",
      "outputs": [
        {
          "internalType": "string",
          "name": "",
          "type": "string"
        }
      ],
      "stateMutability": "view",
      "type": "function"
    },
    {
      "inputs": [],
      "name": "donationsCount",
      "outputs": [
        {
          "internalType": "uint256",
          "name": "",
          "type": "uint256"
        }
      ],
      "stateMutability": "view",
      "type": "function"
    },
    {
      "inputs": [],
      "name": "imageURL",
      "outputs": [
        {
          "internalType": "string",
          "name": "",
          "type": "string"
        }
      ],
      "stateMutability": "view",
      "type": "function"
    },
    {
      "inputs": [],
      "name": "name",
      "outputs": [
        {
          "internalType": "string",
          "name": "",
          "type": "string"
        }
      ],
      "stateMutability": "view",
      "type": "function"
    },
    {
      "inputs": [],
      "name": "owner",
      "outputs": [
        {
          "internalType": "address",
          "name": "",
          "type": "address"
        }
      ],
      "stateMutability": "view",
      "type": "function"
    },
    {
      "inputs": [],
      "name": "renounceOwnership",
      "outputs": [],
      "stateMutability": "nonpayable",
      "type": "function"
    },
    {
      "inputs": [],
      "name": "totalDonations",
      "outputs": [
        {
          "internalType": "uint256",
          "name": "",
          "type": "uint256"
        }
      ],
      "stateMutability": "view",
      "type": "function"
    },
    {
      "inputs": [
        {
          "internalType": "address",
          "name": "newOwner",
          "type": "address"
        }
      ],
      "name": "transferOwnership",
      "outputs": [],
      "stateMutability": "nonpayable",
      "type": "function"
    },
    {
      "inputs": [],
      "name": "url",
      "outputs": [
        {
          "internalType": "string",
          "name": "",
          "type": "string"
        }
      ],
      "stateMutability": "view",
      "type": "function"
    },
    {
      "inputs": [
        {
          "internalType": "address payable",
          "name": "_beneficiary",
          "type": "address"
        }
      ],
      "name": "setBeneficiary",
      "outputs": [],
      "stateMutability": "nonpayable",
      "type": "function"
    },
    {
      "inputs": [],
      "name": "myDonationsCount",
      "outputs": [
        {
          "internalType": "uint256",
          "name": "",
          "type": "uint256"
        }
      ],
      "stateMutability": "view",
      "type": "function"
    },
    {
      "inputs": [],
      "name": "donate",
      "outputs": [],
      "stateMutability": "payable",
      "type": "function"
    },
    {
      "inputs": [],
      "name": "myDonations",
      "outputs": [
        {
          "internalType": "uint256[]",
          "name": "values",
          "type": "uint256[]"
        },
        {
          "internalType": "uint256[]",
          "name": "dates",
          "type": "uint256[]"
        }
      ],
      "stateMutability": "view",
      "type": "function"
    },
    {
      "inputs": [],
      "name": "withdraw",
      "outputs": [],
      "stateMutability": "nonpayable",
      "type": "function"
    }
  ],
  "bytecode": "0x60806040523480156200001157600080fd5b5060405162001c2238038062001c2283398181016040528101906200003791906200061b565b620000576200004b6200011960201b60201c565b6200012160201b60201c565b85600190805190602001906200006f92919062000324565b5084600290805190602001906200008892919062000324565b508360039080519060200190620000a192919062000324565b508260049080519060200190620000ba92919062000324565b5081600560006101000a81548173ffffffffffffffffffffffffffffffffffffffff021916908373ffffffffffffffffffffffffffffffffffffffff1602179055506200010d81620001e560201b60201c565b505050505050620008b3565b600033905090565b60008060009054906101000a900473ffffffffffffffffffffffffffffffffffffffff169050816000806101000a81548173ffffffffffffffffffffffffffffffffffffffff021916908373ffffffffffffffffffffffffffffffffffffffff1602179055508173ffffffffffffffffffffffffffffffffffffffff168173ffffffffffffffffffffffffffffffffffffffff167f8be0079c531659141344cd1fd0a4f28419497f9722a3daafe3b4186f6b6457e060405160405180910390a35050565b620001f56200011960201b60201c565b73ffffffffffffffffffffffffffffffffffffffff166200021b620002fb60201b60201c565b73ffffffffffffffffffffffffffffffffffffffff161462000274576040517f08c379a00000000000000000000000000000000000000000000000000000000081526004016200026b9062000794565b60405180910390fd5b600073ffffffffffffffffffffffffffffffffffffffff168173ffffffffffffffffffffffffffffffffffffffff161415620002e7576040517f08c379a0000000000000000000000000000000000000000000000000000000008152600401620002de906200082c565b60405180910390fd5b620002f8816200012160201b60201c565b50565b60008060009054906101000a900473ffffffffffffffffffffffffffffffffffffffff16905090565b82805462000332906200087d565b90600052602060002090601f016020900481019282620003565760008555620003a2565b82601f106200037157805160ff1916838001178555620003a2565b82800160010185558215620003a2579182015b82811115620003a157825182559160200191906001019062000384565b5b509050620003b19190620003b5565b5090565b5b80821115620003d0576000816000905550600101620003b6565b5090565b6000604051905090565b600080fd5b600080fd5b600080fd5b600080fd5b6000601f19601f8301169050919050565b7f4e487b7100000000000000000000000000000000000000000000000000000000600052604160045260246000fd5b6200043d82620003f2565b810181811067ffffffffffffffff821117156200045f576200045e62000403565b5b80604052505050565b600062000474620003d4565b905062000482828262000432565b919050565b600067ffffffffffffffff821115620004a557620004a462000403565b5b620004b082620003f2565b9050602081019050919050565b60005b83811015620004dd578082015181840152602081019050620004c0565b83811115620004ed576000848401525b50505050565b60006200050a620005048462000487565b62000468565b905082815260208101848484011115620005295762000528620003ed565b5b62000536848285620004bd565b509392505050565b600082601f830112620005565762000555620003e8565b5b815162000568848260208601620004f3565b91505092915050565b600073ffffffffffffffffffffffffffffffffffffffff82169050919050565b60006200059e8262000571565b9050919050565b620005b08162000591565b8114620005bc57600080fd5b50565b600081519050620005d081620005a5565b92915050565b6000620005e38262000571565b9050919050565b620005f581620005d6565b81146200060157600080fd5b50565b6000815190506200061581620005ea565b92915050565b60008060008060008060c087890312156200063b576200063a620003de565b5b600087015167ffffffffffffffff8111156200065c576200065b620003e3565b5b6200066a89828a016200053e565b965050602087015167ffffffffffffffff8111156200068e576200068d620003e3565b5b6200069c89828a016200053e565b955050604087015167ffffffffffffffff811115620006c057620006bf620003e3565b5b620006ce89828a016200053e565b945050606087015167ffffffffffffffff811115620006f257620006f1620003e3565b5b6200070089828a016200053e565b93505060806200071389828a01620005bf565b92505060a06200072689828a0162000604565b9150509295509295509295565b600082825260208201905092915050565b7f4f776e61626c653a2063616c6c6572206973206e6f7420746865206f776e6572600082015250565b60006200077c60208362000733565b9150620007898262000744565b602082019050919050565b60006020820190508181036000830152620007af816200076d565b9050919050565b7f4f776e61626c653a206e6577206f776e657220697320746865207a65726f206160008201527f6464726573730000000000000000000000000000000000000000000000000000602082015250565b60006200081460268362000733565b91506200082182620007b6565b604082019050919050565b60006020820190508181036000830152620008478162000805565b9050919050565b7f4e487b7100000000000000000000000000000000000000000000000000000000600052602260045260246000fd5b600060028204905060018216806200089657607f821691505b60208210811415620008ad57620008ac6200084e565b5b50919050565b61135f80620008c36000396000f3fe6080604052600436106100f75760003560e01c80635600f04f1161008a578063b90497e011610059578063b90497e014610308578063de2ed89314610333578063ed88c68e1461035e578063f2fde38b14610368576100f8565b80635600f04f14610270578063715018a61461029b5780637284e416146102b25780638da5cb5b146102dd576100f8565b80631f522595116100c65780631f522595146101d8578063375b74c31461020357806338af3eed1461022e5780633ccfd60b14610259576100f8565b80630180b97c1461012d57806306fdde03146101585780631a57f7b4146101835780631c31f710146101af576100f8565b5b61010d3460085461039190919063ffffffff16565b6008819055506009600081548092919061012690610da4565b9190505550005b34801561013957600080fd5b506101426103a7565b60405161014f9190610dfc565b60405180910390f35b34801561016457600080fd5b5061016d6103f1565b60405161017a9190610eb0565b60405180910390f35b34801561018f57600080fd5b5061019861047f565b6040516101a6929190610f90565b60405180910390f35b3480156101bb57600080fd5b506101d660048036038101906101d1919061102a565b6105f4565b005b3480156101e457600080fd5b506101ed6106b4565b6040516101fa9190610dfc565b60405180910390f35b34801561020f57600080fd5b506102186106ba565b6040516102259190611078565b60405180910390f35b34801561023a57600080fd5b506102436106e0565b60405161025091906110a2565b60405180910390f35b34801561026557600080fd5b5061026e610706565b005b34801561027c57600080fd5b5061028561082a565b6040516102929190610eb0565b60405180910390f35b3480156102a757600080fd5b506102b06108b8565b005b3480156102be57600080fd5b506102c7610940565b6040516102d49190610eb0565b60405180910390f35b3480156102e957600080fd5b506102f26109ce565b6040516102ff9190611078565b60405180910390f35b34801561031457600080fd5b5061031d6109f7565b60405161032a9190610eb0565b60405180910390f35b34801561033f57600080fd5b50610348610a85565b6040516103559190610dfc565b60405180910390f35b610366610a8b565b005b34801561037457600080fd5b5061038f600480360381019061038a91906110e9565b610ba7565b005b6000818361039f9190611116565b905092915050565b6000600760003373ffffffffffffffffffffffffffffffffffffffff1673ffffffffffffffffffffffffffffffffffffffff16815260200190815260200160002080549050905090565b600180546103fe9061119b565b80601f016020809104026020016040519081016040528092919081815260200182805461042a9061119b565b80156104775780601f1061044c57610100808354040283529160200191610477565b820191906000526020600020905b81548152906001019060200180831161045a57829003601f168201915b505050505081565b606080600061048c6103a7565b90508067ffffffffffffffff8111156104a8576104a76111cd565b5b6040519080825280602002602001820160405280156104d65781602001602082028036833780820191505090505b5092508067ffffffffffffffff8111156104f3576104f26111cd565b5b6040519080825280602002602001820160405280156105215781602001602082028036833780820191505090505b50915060005b818110156105ee576000600760003373ffffffffffffffffffffffffffffffffffffffff1673ffffffffffffffffffffffffffffffffffffffff1681526020019081526020016000208281548110610582576105816111fc565b5b9060005260206000209060020201905080600001548583815181106105aa576105a96111fc565b5b60200260200101818152505080600101548483815181106105ce576105cd6111fc565b5b6020026020010181815250505080806105e690610da4565b915050610527565b50509091565b6105fc610c9f565b73ffffffffffffffffffffffffffffffffffffffff1661061a6109ce565b73ffffffffffffffffffffffffffffffffffffffff1614610670576040517f08c379a000000000000000000000000000000000000000000000000000000000815260040161066790611277565b60405180910390fd5b80600560006101000a81548173ffffffffffffffffffffffffffffffffffffffff021916908373ffffffffffffffffffffffffffffffffffffffff16021790555050565b60095481565b600660009054906101000a900473ffffffffffffffffffffffffffffffffffffffff1681565b600560009054906101000a900473ffffffffffffffffffffffffffffffffffffffff1681565b61070e610c9f565b73ffffffffffffffffffffffffffffffffffffffff1661072c6109ce565b73ffffffffffffffffffffffffffffffffffffffff1614610782576040517f08c379a000000000000000000000000000000000000000000000000000000000815260040161077990611277565b60405180910390fd5b6000479050600560009054906101000a900473ffffffffffffffffffffffffffffffffffffffff1673ffffffffffffffffffffffffffffffffffffffff166108fc829081150290604051600060405180830381858888f193505050501580156107ef573d6000803e3d6000fd5b507f5b6b431d4476a211bb7d41c20d1aab9ae2321deee0d20be3d9fc9b1093fa6e3d8160405161081f9190610dfc565b60405180910390a150565b600280546108379061119b565b80601f01602080910402602001604051908101604052809291908181526020018280546108639061119b565b80156108b05780601f10610885576101008083540402835291602001916108b0565b820191906000526020600020905b81548152906001019060200180831161089357829003601f168201915b505050505081565b6108c0610c9f565b73ffffffffffffffffffffffffffffffffffffffff166108de6109ce565b73ffffffffffffffffffffffffffffffffffffffff1614610934576040517f08c379a000000000000000000000000000000000000000000000000000000000815260040161092b90611277565b60405180910390fd5b61093e6000610ca7565b565b6004805461094d9061119b565b80601f01602080910402602001604051908101604052809291908181526020018280546109799061119b565b80156109c65780601f1061099b576101008083540402835291602001916109c6565b820191906000526020600020905b8154815290600101906020018083116109a957829003601f168201915b505050505081565b60008060009054906101000a900473ffffffffffffffffffffffffffffffffffffffff16905090565b60038054610a049061119b565b80601f0160208091040260200160405190810160405280929190818152602001828054610a309061119b565b8015610a7d5780601f10610a5257610100808354040283529160200191610a7d565b820191906000526020600020905b815481529060010190602001808311610a6057829003601f168201915b505050505081565b60085481565b60006040518060400160405280348152602001428152509050600760003373ffffffffffffffffffffffffffffffffffffffff1673ffffffffffffffffffffffffffffffffffffffff16815260200190815260200160002081908060018154018082558091505060019003906000526020600020906002020160009091909190915060008201518160000155602082015181600101555050610b383460085461039190919063ffffffff16565b60088190555060096000815480929190610b5190610da4565b91905055503373ffffffffffffffffffffffffffffffffffffffff167f264f630d9efa0d07053a31163641d9fcc0adafc9d9e76f1c37c2ce3a558d2c5234604051610b9c9190610dfc565b60405180910390a250565b610baf610c9f565b73ffffffffffffffffffffffffffffffffffffffff16610bcd6109ce565b73ffffffffffffffffffffffffffffffffffffffff1614610c23576040517f08c379a0000000000000000000000000000000000000000000000000000000008152600401610c1a90611277565b60405180910390fd5b600073ffffffffffffffffffffffffffffffffffffffff168173ffffffffffffffffffffffffffffffffffffffff161415610c93576040517f08c379a0000000000000000000000000000000000000000000000000000000008152600401610c8a90611309565b60405180910390fd5b610c9c81610ca7565b50565b600033905090565b60008060009054906101000a900473ffffffffffffffffffffffffffffffffffffffff169050816000806101000a81548173ffffffffffffffffffffffffffffffffffffffff021916908373ffffffffffffffffffffffffffffffffffffffff1602179055508173ffffffffffffffffffffffffffffffffffffffff168173ffffffffffffffffffffffffffffffffffffffff167f8be0079c531659141344cd1fd0a4f28419497f9722a3daafe3b4186f6b6457e060405160405180910390a35050565b7f4e487b7100000000000000000000000000000000000000000000000000000000600052601160045260246000fd5b6000819050919050565b6000610daf82610d9a565b91507fffffffffffffffffffffffffffffffffffffffffffffffffffffffffffffffff821415610de257610de1610d6b565b5b600182019050919050565b610df681610d9a565b82525050565b6000602082019050610e116000830184610ded565b92915050565b600081519050919050565b600082825260208201905092915050565b60005b83811015610e51578082015181840152602081019050610e36565b83811115610e60576000848401525b50505050565b6000601f19601f8301169050919050565b6000610e8282610e17565b610e8c8185610e22565b9350610e9c818560208601610e33565b610ea581610e66565b840191505092915050565b60006020820190508181036000830152610eca8184610e77565b905092915050565b600081519050919050565b600082825260208201905092915050565b6000819050602082019050919050565b610f0781610d9a565b82525050565b6000610f198383610efe565b60208301905092915050565b6000602082019050919050565b6000610f3d82610ed2565b610f478185610edd565b9350610f5283610eee565b8060005b83811015610f83578151610f6a8882610f0d565b9750610f7583610f25565b925050600181019050610f56565b5085935050505092915050565b60006040820190508181036000830152610faa8185610f32565b90508181036020830152610fbe8184610f32565b90509392505050565b600080fd5b600073ffffffffffffffffffffffffffffffffffffffff82169050919050565b6000610ff782610fcc565b9050919050565b61100781610fec565b811461101257600080fd5b50565b60008135905061102481610ffe565b92915050565b6000602082840312156110405761103f610fc7565b5b600061104e84828501611015565b91505092915050565b600061106282610fcc565b9050919050565b61107281611057565b82525050565b600060208201905061108d6000830184611069565b92915050565b61109c81610fec565b82525050565b60006020820190506110b76000830184611093565b92915050565b6110c681611057565b81146110d157600080fd5b50565b6000813590506110e3816110bd565b92915050565b6000602082840312156110ff576110fe610fc7565b5b600061110d848285016110d4565b91505092915050565b600061112182610d9a565b915061112c83610d9a565b9250827fffffffffffffffffffffffffffffffffffffffffffffffffffffffffffffffff0382111561116157611160610d6b565b5b828201905092915050565b7f4e487b7100000000000000000000000000000000000000000000000000000000600052602260045260246000fd5b600060028204905060018216806111b357607f821691505b602082108114156111c7576111c661116c565b5b50919050565b7f4e487b7100000000000000000000000000000000000000000000000000000000600052604160045260246000fd5b7f4e487b7100000000000000000000000000000000000000000000000000000000600052603260045260246000fd5b7f4f776e61626c653a2063616c6c6572206973206e6f7420746865206f776e6572600082015250565b6000611261602083610e22565b915061126c8261122b565b602082019050919050565b6000602082019050818103600083015261129081611254565b9050919050565b7f4f776e61626c653a206e6577206f776e657220697320746865207a65726f206160008201527f6464726573730000000000000000000000000000000000000000000000000000602082015250565b60006112f3602683610e22565b91506112fe82611297565b604082019050919050565b60006020820190508181036000830152611322816112e6565b905091905056fea2646970667358221220e9103b31ba9f4b644a0b6d702c97a9d3ccc4862d0b967289072ee23cfa1ba1a864736f6c634300080b0033",
  "immutableReferences": {},
  "source": "pragma solidity >0.4.23;\n\nimport \"@openzeppelin/contracts/access/Ownable.sol\";\nimport \"openzeppelin-solidity/contracts/utils/math/SafeMath.sol\";\n\n\ncontract Fundraiser is Ownable {\n    using SafeMath for uint256;\n    string public name;\n    string public url;\n    string public imageURL;\n    string public description; \n    address payable public beneficiary;\n    address public custodian;\n    struct Donation {\n        uint256 value;\n        uint256 date; \n    }\n    mapping (address => Donation[]) private _donations;\n    uint256 public totalDonations;\n    uint256 public donationsCount;\n\n    event DonationReceived (address indexed donor, uint256 value);\n    event Withdraw(uint256 amount);\n\n    constructor (string memory _name, string memory _url, string memory _imageURL, string memory _description, address payable _beneficiary, address _custodian) public {\n        name = _name;\n        url = _url;\n        imageURL = _imageURL;\n        description = _description;\n        beneficiary = _beneficiary;\n        transferOwnership(_custodian);\n    }\n\n    function setBeneficiary (address payable _beneficiary) public onlyOwner {\n        beneficiary = _beneficiary;\n    }\n\n    function myDonationsCount () public view returns (uint256) {\n        return _donations[msg.sender].length;\n    }\n\n    \n    function donate () public payable {\n        Donation memory donation = Donation({\n            value: msg.value,\n            date: block.timestamp\n        });\n        _donations[msg.sender].push(donation);\n        totalDonations = totalDonations.add(msg.value);\n        donationsCount++;\n        emit DonationReceived (msg.sender, msg.value);\n      }\n\n   \n    function myDonations () public view returns (uint256[] memory values, uint256[] memory dates) {\n        uint256 count = myDonationsCount();\n        values = new uint256[](count);\n        dates = new uint256[](count);\n        for (uint256 i = 0; i < count; i++) {\n            Donation storage donation = _donations[msg.sender][i];\n            values[i] = donation.value;\n            dates[i] = donation.date;\n        }\n        return (values, dates);\n    }\n\n    function withdraw () public onlyOwner {\n        uint256 balance = address(this).balance;\n        beneficiary.transfer(balance);\n        emit Withdraw(balance);\n    }\n\n\n    fallback () external payable {\n        totalDonations = totalDonations.add(msg.value);\n        donationsCount++;\n    }\n   \n}",
  "sourcePath": "/Users/ac12644/Desktop/fundraiser/contracts/Fundraiser.sol",
  "compiler": {
    "name": "solc",
    "version": "0.8.11+commit.d7f03943.Emscripten.clang"
  },
  "schemaVersion": "3.4.4",
  "updatedAt": "2022-01-30T21:43:16.614Z",
  "devdoc": {
    "kind": "dev",
    "methods": {
      "owner()": {
        "details": "Returns the address of the current owner."
      },
      "renounceOwnership()": {
        "details": "Leaves the contract without owner. It will not be possible to call `onlyOwner` functions anymore. Can only be called by the current owner. NOTE: Renouncing ownership will leave the contract without an owner, thereby removing any functionality that is only available to the owner."
      },
      "transferOwnership(address)": {
        "details": "Transfers ownership of the contract to a new account (`newOwner`). Can only be called by the current owner."
      }
    },
    "version": 1
  },
  "userdoc": {
    "kind": "user",
    "methods": {},
    "version": 1
  }
}