{
  "contractName": "FundraiserFactory",
  "abi": [
    {
      "anonymous": false,
      "inputs": [
        {
          "indexed": true,
          "internalType": "contract Fundraiser",
          "name": "fundraiser",
          "type": "address"
        },
        {
          "indexed": true,
          "internalType": "address",
          "name": "owner",
          "type": "address"
        }
      ],
      "name": "FundraiserCreated",
      "type": "event"
    },
    {
      "inputs": [],
      "name": "fundraisersCount",
      "outputs": [
        {
          "internalType": "uint256",
          "name": "",
          "type": "uint256"
        }
      ],
      "stateMutability": "view",
      "type": "function",
      "constant": true
    },
    {
      "inputs": [
        {
          "internalType": "string",
          "name": "name",
          "type": "string"
        },
        {
          "internalType": "string",
          "name": "url",
          "type": "string"
        },
        {
          "internalType": "string",
          "name": "imageURL",
          "type": "string"
        },
        {
          "internalType": "string",
          "name": "description",
          "type": "string"
        },
        {
          "internalType": "address payable",
          "name": "beneficiary",
          "type": "address"
        }
      ],
      "name": "createFundraiser",
      "outputs": [],
      "stateMutability": "nonpayable",
      "type": "function"
    },
    {
      "inputs": [
        {
          "internalType": "uint256",
          "name": "limit",
          "type": "uint256"
        },
        {
          "internalType": "uint256",
          "name": "offset",
          "type": "uint256"
        }
      ],
      "name": "fundraisers",
      "outputs": [
        {
          "internalType": "contract Fundraiser[]",
          "name": "coll",
          "type": "address[]"
        }
      ],
      "stateMutability": "view",
      "type": "function",
      "constant": true
    }
  ],
  "bytecode": "0x608060405234801561001057600080fd5b506127c9806100206000396000f3fe60806040523480156200001157600080fd5b5060043610620000465760003560e01c806311d752ad146200004b578063704914f8146200006b5780639d3b435514620000a1575b600080fd5b62000069600480360381019062000063919062000570565b620000c3565b005b620000896004803603810190620000839190620006af565b620001cf565b6040516200009891906200081e565b60405180910390f35b620000ab6200037b565b604051620000ba919062000853565b60405180910390f35b6000858585858533604051620000d99062000387565b620000ea9695949392919062000939565b604051809103906000f08015801562000107573d6000803e3d6000fd5b5090506000819080600181540180825580915050600190039060005260206000200160009091909190916101000a81548173ffffffffffffffffffffffffffffffffffffffff021916908373ffffffffffffffffffffffffffffffffffffffff1602179055503373ffffffffffffffffffffffffffffffffffffffff168173ffffffffffffffffffffffffffffffffffffffff167fa2398daac0c8053a1e3c0280916c2ec6bc884f0959c27e639a4db829b7eabfb160405160405180910390a3505050505050565b6060620001db6200037b565b82111562000220576040517f08c379a0000000000000000000000000000000000000000000000000000000008152600401620002179062000a12565b60405180910390fd5b6000826200022d6200037b565b62000239919062000a63565b90508381106200024a57836200024c565b805b9050601481106200025f57601462000261565b805b90508067ffffffffffffffff81111562000280576200027f620003c4565b5b604051908082528060200260200182016040528015620002af5781602001602082028036833780820191505090505b50915060005b81811015620003735760008185620002ce919062000a9e565b81548110620002e257620002e162000afb565b5b9060005260206000200160009054906101000a900473ffffffffffffffffffffffffffffffffffffffff1683828151811062000323576200032262000afb565b5b602002602001019073ffffffffffffffffffffffffffffffffffffffff16908173ffffffffffffffffffffffffffffffffffffffff168152505080806200036a9062000b2a565b915050620002b5565b505092915050565b60008080549050905090565b611c1c8062000b7883390190565b6000604051905090565b600080fd5b600080fd5b600080fd5b600080fd5b6000601f19601f8301169050919050565b7f4e487b7100000000000000000000000000000000000000000000000000000000600052604160045260246000fd5b620003fe82620003b3565b810181811067ffffffffffffffff8211171562000420576200041f620003c4565b5b80604052505050565b60006200043562000395565b9050620004438282620003f3565b919050565b600067ffffffffffffffff821115620004665762000465620003c4565b5b6200047182620003b3565b9050602081019050919050565b82818337600083830152505050565b6000620004a46200049e8462000448565b62000429565b905082815260208101848484011115620004c357620004c2620003ae565b5b620004d08482856200047e565b509392505050565b600082601f830112620004f057620004ef620003a9565b5b8135620005028482602086016200048d565b91505092915050565b600073ffffffffffffffffffffffffffffffffffffffff82169050919050565b600062000538826200050b565b9050919050565b6200054a816200052b565b81146200055657600080fd5b50565b6000813590506200056a816200053f565b92915050565b600080600080600060a086880312156200058f576200058e6200039f565b5b600086013567ffffffffffffffff811115620005b057620005af620003a4565b5b620005be88828901620004d8565b955050602086013567ffffffffffffffff811115620005e257620005e1620003a4565b5b620005f088828901620004d8565b945050604086013567ffffffffffffffff811115620006145762000613620003a4565b5b6200062288828901620004d8565b935050606086013567ffffffffffffffff811115620006465762000645620003a4565b5b6200065488828901620004d8565b9250506080620006678882890162000559565b9150509295509295909350565b6000819050919050565b620006898162000674565b81146200069557600080fd5b50565b600081359050620006a9816200067e565b92915050565b60008060408385031215620006c957620006c86200039f565b5b6000620006d98582860162000698565b9250506020620006ec8582860162000698565b9150509250929050565b600081519050919050565b600082825260208201905092915050565b6000819050602082019050919050565b6000819050919050565b60006200074d6200074762000741846200050b565b62000722565b6200050b565b9050919050565b600062000761826200072c565b9050919050565b6000620007758262000754565b9050919050565b620007878162000768565b82525050565b60006200079b83836200077c565b60208301905092915050565b6000602082019050919050565b6000620007c182620006f6565b620007cd818562000701565b9350620007da8362000712565b8060005b8381101562000811578151620007f588826200078d565b97506200080283620007a7565b925050600181019050620007de565b5085935050505092915050565b600060208201905081810360008301526200083a8184620007b4565b905092915050565b6200084d8162000674565b82525050565b60006020820190506200086a600083018462000842565b92915050565b600081519050919050565b600082825260208201905092915050565b60005b83811015620008ac5780820151818401526020810190506200088f565b83811115620008bc576000848401525b50505050565b6000620008cf8262000870565b620008db81856200087b565b9350620008ed8185602086016200088c565b620008f881620003b3565b840191505092915050565b6200090e816200052b565b82525050565b600062000921826200050b565b9050919050565b620009338162000914565b82525050565b600060c0820190508181036000830152620009558189620008c2565b905081810360208301526200096b8188620008c2565b90508181036040830152620009818187620008c2565b90508181036060830152620009978186620008c2565b9050620009a8608083018562000903565b620009b760a083018462000928565b979650505050505050565b7f6f6666736574206f7574206f6620626f756e6473000000000000000000000000600082015250565b6000620009fa6014836200087b565b915062000a0782620009c2565b602082019050919050565b6000602082019050818103600083015262000a2d81620009eb565b9050919050565b7f4e487b7100000000000000000000000000000000000000000000000000000000600052601160045260246000fd5b600062000a708262000674565b915062000a7d8362000674565b92508282101562000a935762000a9262000a34565b5b828203905092915050565b600062000aab8262000674565b915062000ab88362000674565b9250827fffffffffffffffffffffffffffffffffffffffffffffffffffffffffffffffff0382111562000af05762000aef62000a34565b5b828201905092915050565b7f4e487b7100000000000000000000000000000000000000000000000000000000600052603260045260246000fd5b600062000b378262000674565b91507fffffffffffffffffffffffffffffffffffffffffffffffffffffffffffffffff820362000b6c5762000b6b62000a34565b5b60018201905091905056fe60806040523480156200001157600080fd5b5060405162001c1c38038062001c1c83398181016040528101906200003791906200061a565b620000576200004b6200011960201b60201c565b6200012160201b60201c565b85600190805190602001906200006f92919062000323565b5084600290805190602001906200008892919062000323565b508360039080519060200190620000a192919062000323565b508260049080519060200190620000ba92919062000323565b5081600560006101000a81548173ffffffffffffffffffffffffffffffffffffffff021916908373ffffffffffffffffffffffffffffffffffffffff1602179055506200010d81620001e560201b60201c565b505050505050620008b1565b600033905090565b60008060009054906101000a900473ffffffffffffffffffffffffffffffffffffffff169050816000806101000a81548173ffffffffffffffffffffffffffffffffffffffff021916908373ffffffffffffffffffffffffffffffffffffffff1602179055508173ffffffffffffffffffffffffffffffffffffffff168173ffffffffffffffffffffffffffffffffffffffff167f8be0079c531659141344cd1fd0a4f28419497f9722a3daafe3b4186f6b6457e060405160405180910390a35050565b620001f56200011960201b60201c565b73ffffffffffffffffffffffffffffffffffffffff166200021b620002fa60201b60201c565b73ffffffffffffffffffffffffffffffffffffffff161462000274576040517f08c379a00000000000000000000000000000000000000000000000000000000081526004016200026b9062000793565b60405180910390fd5b600073ffffffffffffffffffffffffffffffffffffffff168173ffffffffffffffffffffffffffffffffffffffff1603620002e6576040517f08c379a0000000000000000000000000000000000000000000000000000000008152600401620002dd906200082b565b60405180910390fd5b620002f7816200012160201b60201c565b50565b60008060009054906101000a900473ffffffffffffffffffffffffffffffffffffffff16905090565b82805462000331906200087c565b90600052602060002090601f016020900481019282620003555760008555620003a1565b82601f106200037057805160ff1916838001178555620003a1565b82800160010185558215620003a1579182015b82811115620003a057825182559160200191906001019062000383565b5b509050620003b09190620003b4565b5090565b5b80821115620003cf576000816000905550600101620003b5565b5090565b6000604051905090565b600080fd5b600080fd5b600080fd5b600080fd5b6000601f19601f8301169050919050565b7f4e487b7100000000000000000000000000000000000000000000000000000000600052604160045260246000fd5b6200043c82620003f1565b810181811067ffffffffffffffff821117156200045e576200045d62000402565b5b80604052505050565b600062000473620003d3565b905062000481828262000431565b919050565b600067ffffffffffffffff821115620004a457620004a362000402565b5b620004af82620003f1565b9050602081019050919050565b60005b83811015620004dc578082015181840152602081019050620004bf565b83811115620004ec576000848401525b50505050565b600062000509620005038462000486565b62000467565b905082815260208101848484011115620005285762000527620003ec565b5b62000535848285620004bc565b509392505050565b600082601f830112620005555762000554620003e7565b5b815162000567848260208601620004f2565b91505092915050565b600073ffffffffffffffffffffffffffffffffffffffff82169050919050565b60006200059d8262000570565b9050919050565b620005af8162000590565b8114620005bb57600080fd5b50565b600081519050620005cf81620005a4565b92915050565b6000620005e28262000570565b9050919050565b620005f481620005d5565b81146200060057600080fd5b50565b6000815190506200061481620005e9565b92915050565b60008060008060008060c087890312156200063a5762000639620003dd565b5b600087015167ffffffffffffffff8111156200065b576200065a620003e2565b5b6200066989828a016200053d565b965050602087015167ffffffffffffffff8111156200068d576200068c620003e2565b5b6200069b89828a016200053d565b955050604087015167ffffffffffffffff811115620006bf57620006be620003e2565b5b620006cd89828a016200053d565b945050606087015167ffffffffffffffff811115620006f157620006f0620003e2565b5b620006ff89828a016200053d565b93505060806200071289828a01620005be565b92505060a06200072589828a0162000603565b9150509295509295509295565b600082825260208201905092915050565b7f4f776e61626c653a2063616c6c6572206973206e6f7420746865206f776e6572600082015250565b60006200077b60208362000732565b9150620007888262000743565b602082019050919050565b60006020820190508181036000830152620007ae816200076c565b9050919050565b7f4f776e61626c653a206e6577206f776e657220697320746865207a65726f206160008201527f6464726573730000000000000000000000000000000000000000000000000000602082015250565b60006200081360268362000732565b91506200082082620007b5565b604082019050919050565b60006020820190508181036000830152620008468162000804565b9050919050565b7f4e487b7100000000000000000000000000000000000000000000000000000000600052602260045260246000fd5b600060028204905060018216806200089557607f821691505b602082108103620008ab57620008aa6200084d565b5b50919050565b61135b80620008c16000396000f3fe6080604052600436106100f75760003560e01c80635600f04f1161008a578063b90497e011610059578063b90497e014610307578063de2ed89314610332578063ed88c68e1461035d578063f2fde38b14610367576100f8565b80635600f04f1461026f578063715018a61461029a5780637284e416146102b15780638da5cb5b146102dc576100f8565b80631f522595116100c65780631f522595146101d7578063375b74c31461020257806338af3eed1461022d5780633ccfd60b14610258576100f8565b80630180b97c1461012c57806306fdde03146101575780631a57f7b4146101825780631c31f710146101ae576100f8565b5b61010d3460085461039090919063ffffffff16565b6008819055506009600081548092919061012690610da2565b91905055005b34801561013857600080fd5b506101416103a6565b60405161014e9190610df9565b60405180910390f35b34801561016357600080fd5b5061016c6103f0565b6040516101799190610ead565b60405180910390f35b34801561018e57600080fd5b5061019761047e565b6040516101a5929190610f8d565b60405180910390f35b3480156101ba57600080fd5b506101d560048036038101906101d09190611027565b6105f3565b005b3480156101e357600080fd5b506101ec6106b3565b6040516101f99190610df9565b60405180910390f35b34801561020e57600080fd5b506102176106b9565b6040516102249190611075565b60405180910390f35b34801561023957600080fd5b506102426106df565b60405161024f919061109f565b60405180910390f35b34801561026457600080fd5b5061026d610705565b005b34801561027b57600080fd5b50610284610829565b6040516102919190610ead565b60405180910390f35b3480156102a657600080fd5b506102af6108b7565b005b3480156102bd57600080fd5b506102c661093f565b6040516102d39190610ead565b60405180910390f35b3480156102e857600080fd5b506102f16109cd565b6040516102fe9190611075565b60405180910390f35b34801561031357600080fd5b5061031c6109f6565b6040516103299190610ead565b60405180910390f35b34801561033e57600080fd5b50610347610a84565b6040516103549190610df9565b60405180910390f35b610365610a8a565b005b34801561037357600080fd5b5061038e600480360381019061038991906110e6565b610ba6565b005b6000818361039e9190611113565b905092915050565b6000600760003373ffffffffffffffffffffffffffffffffffffffff1673ffffffffffffffffffffffffffffffffffffffff16815260200190815260200160002080549050905090565b600180546103fd90611198565b80601f016020809104026020016040519081016040528092919081815260200182805461042990611198565b80156104765780601f1061044b57610100808354040283529160200191610476565b820191906000526020600020905b81548152906001019060200180831161045957829003601f168201915b505050505081565b606080600061048b6103a6565b90508067ffffffffffffffff8111156104a7576104a66111c9565b5b6040519080825280602002602001820160405280156104d55781602001602082028036833780820191505090505b5092508067ffffffffffffffff8111156104f2576104f16111c9565b5b6040519080825280602002602001820160405280156105205781602001602082028036833780820191505090505b50915060005b818110156105ed576000600760003373ffffffffffffffffffffffffffffffffffffffff1673ffffffffffffffffffffffffffffffffffffffff1681526020019081526020016000208281548110610581576105806111f8565b5b9060005260206000209060020201905080600001548583815181106105a9576105a86111f8565b5b60200260200101818152505080600101548483815181106105cd576105cc6111f8565b5b6020026020010181815250505080806105e590610da2565b915050610526565b50509091565b6105fb610c9d565b73ffffffffffffffffffffffffffffffffffffffff166106196109cd565b73ffffffffffffffffffffffffffffffffffffffff161461066f576040517f08c379a000000000000000000000000000000000000000000000000000000000815260040161066690611273565b60405180910390fd5b80600560006101000a81548173ffffffffffffffffffffffffffffffffffffffff021916908373ffffffffffffffffffffffffffffffffffffffff16021790555050565b60095481565b600660009054906101000a900473ffffffffffffffffffffffffffffffffffffffff1681565b600560009054906101000a900473ffffffffffffffffffffffffffffffffffffffff1681565b61070d610c9d565b73ffffffffffffffffffffffffffffffffffffffff1661072b6109cd565b73ffffffffffffffffffffffffffffffffffffffff1614610781576040517f08c379a000000000000000000000000000000000000000000000000000000000815260040161077890611273565b60405180910390fd5b6000479050600560009054906101000a900473ffffffffffffffffffffffffffffffffffffffff1673ffffffffffffffffffffffffffffffffffffffff166108fc829081150290604051600060405180830381858888f193505050501580156107ee573d6000803e3d6000fd5b507f5b6b431d4476a211bb7d41c20d1aab9ae2321deee0d20be3d9fc9b1093fa6e3d8160405161081e9190610df9565b60405180910390a150565b6002805461083690611198565b80601f016020809104026020016040519081016040528092919081815260200182805461086290611198565b80156108af5780601f10610884576101008083540402835291602001916108af565b820191906000526020600020905b81548152906001019060200180831161089257829003601f168201915b505050505081565b6108bf610c9d565b73ffffffffffffffffffffffffffffffffffffffff166108dd6109cd565b73ffffffffffffffffffffffffffffffffffffffff1614610933576040517f08c379a000000000000000000000000000000000000000000000000000000000815260040161092a90611273565b60405180910390fd5b61093d6000610ca5565b565b6004805461094c90611198565b80601f016020809104026020016040519081016040528092919081815260200182805461097890611198565b80156109c55780601f1061099a576101008083540402835291602001916109c5565b820191906000526020600020905b8154815290600101906020018083116109a857829003601f168201915b505050505081565b60008060009054906101000a900473ffffffffffffffffffffffffffffffffffffffff16905090565b60038054610a0390611198565b80601f0160208091040260200160405190810160405280929190818152602001828054610a2f90611198565b8015610a7c5780601f10610a5157610100808354040283529160200191610a7c565b820191906000526020600020905b815481529060010190602001808311610a5f57829003601f168201915b505050505081565b60085481565b60006040518060400160405280348152602001428152509050600760003373ffffffffffffffffffffffffffffffffffffffff1673ffffffffffffffffffffffffffffffffffffffff16815260200190815260200160002081908060018154018082558091505060019003906000526020600020906002020160009091909190915060008201518160000155602082015181600101555050610b373460085461039090919063ffffffff16565b60088190555060096000815480929190610b5090610da2565b91905055503373ffffffffffffffffffffffffffffffffffffffff167f264f630d9efa0d07053a31163641d9fcc0adafc9d9e76f1c37c2ce3a558d2c5234604051610b9b9190610df9565b60405180910390a250565b610bae610c9d565b73ffffffffffffffffffffffffffffffffffffffff16610bcc6109cd565b73ffffffffffffffffffffffffffffffffffffffff1614610c22576040517f08c379a0000000000000000000000000000000000000000000000000000000008152600401610c1990611273565b60405180910390fd5b600073ffffffffffffffffffffffffffffffffffffffff168173ffffffffffffffffffffffffffffffffffffffff1603610c91576040517f08c379a0000000000000000000000000000000000000000000000000000000008152600401610c8890611305565b60405180910390fd5b610c9a81610ca5565b50565b600033905090565b60008060009054906101000a900473ffffffffffffffffffffffffffffffffffffffff169050816000806101000a81548173ffffffffffffffffffffffffffffffffffffffff021916908373ffffffffffffffffffffffffffffffffffffffff1602179055508173ffffffffffffffffffffffffffffffffffffffff168173ffffffffffffffffffffffffffffffffffffffff167f8be0079c531659141344cd1fd0a4f28419497f9722a3daafe3b4186f6b6457e060405160405180910390a35050565b7f4e487b7100000000000000000000000000000000000000000000000000000000600052601160045260246000fd5b6000819050919050565b6000610dad82610d98565b91507fffffffffffffffffffffffffffffffffffffffffffffffffffffffffffffffff8203610ddf57610dde610d69565b5b600182019050919050565b610df381610d98565b82525050565b6000602082019050610e0e6000830184610dea565b92915050565b600081519050919050565b600082825260208201905092915050565b60005b83811015610e4e578082015181840152602081019050610e33565b83811115610e5d576000848401525b50505050565b6000601f19601f8301169050919050565b6000610e7f82610e14565b610e898185610e1f565b9350610e99818560208601610e30565b610ea281610e63565b840191505092915050565b60006020820190508181036000830152610ec78184610e74565b905092915050565b600081519050919050565b600082825260208201905092915050565b6000819050602082019050919050565b610f0481610d98565b82525050565b6000610f168383610efb565b60208301905092915050565b6000602082019050919050565b6000610f3a82610ecf565b610f448185610eda565b9350610f4f83610eeb565b8060005b83811015610f80578151610f678882610f0a565b9750610f7283610f22565b925050600181019050610f53565b5085935050505092915050565b60006040820190508181036000830152610fa78185610f2f565b90508181036020830152610fbb8184610f2f565b90509392505050565b600080fd5b600073ffffffffffffffffffffffffffffffffffffffff82169050919050565b6000610ff482610fc9565b9050919050565b61100481610fe9565b811461100f57600080fd5b50565b60008135905061102181610ffb565b92915050565b60006020828403121561103d5761103c610fc4565b5b600061104b84828501611012565b91505092915050565b600061105f82610fc9565b9050919050565b61106f81611054565b82525050565b600060208201905061108a6000830184611066565b92915050565b61109981610fe9565b82525050565b60006020820190506110b46000830184611090565b92915050565b6110c381611054565b81146110ce57600080fd5b50565b6000813590506110e0816110ba565b92915050565b6000602082840312156110fc576110fb610fc4565b5b600061110a848285016110d1565b91505092915050565b600061111e82610d98565b915061112983610d98565b9250827fffffffffffffffffffffffffffffffffffffffffffffffffffffffffffffffff0382111561115e5761115d610d69565b5b828201905092915050565b7f4e487b7100000000000000000000000000000000000000000000000000000000600052602260045260246000fd5b600060028204905060018216806111b057607f821691505b6020821081036111c3576111c2611169565b5b50919050565b7f4e487b7100000000000000000000000000000000000000000000000000000000600052604160045260246000fd5b7f4e487b7100000000000000000000000000000000000000000000000000000000600052603260045260246000fd5b7f4f776e61626c653a2063616c6c6572206973206e6f7420746865206f776e6572600082015250565b600061125d602083610e1f565b915061126882611227565b602082019050919050565b6000602082019050818103600083015261128c81611250565b9050919050565b7f4f776e61626c653a206e6577206f776e657220697320746865207a65726f206160008201527f6464726573730000000000000000000000000000000000000000000000000000602082015250565b60006112ef602683610e1f565b91506112fa82611293565b604082019050919050565b6000602082019050818103600083015261131e816112e2565b905091905056fea2646970667358221220643432d7f13135d103e6f0adea1cad583699b23b21ccc772ff2b87ea3320b2ed64736f6c634300080e0033a264697066735822122017803f4a8c5a4c140d3532ecd910058625264b01953163b4a12557d125c51deb64736f6c634300080e0033",
  "immutableReferences": {},
  "source": "pragma solidity >0.4.23;\n\nimport \"./Fundraiser.sol\";\n\ncontract FundraiserFactory {\n    Fundraiser[] private _fundraisers;\n    uint256 constant maxLimit = 20;\n\n    event FundraiserCreated (Fundraiser indexed fundraiser, address indexed owner);\n\n    function fundraisersCount () public view returns (uint256) {\n        return _fundraisers.length;\n    }\n    function createFundraiser (string memory name, string memory url, string memory imageURL, string memory description, address payable beneficiary) public {\n        Fundraiser fundraiser = new Fundraiser (name, url, imageURL, description, beneficiary, msg.sender);\n        _fundraisers.push(fundraiser);\n        emit FundraiserCreated(fundraiser, msg.sender);\n    }\n\n    function fundraisers (uint256 limit, uint256 offset) public view returns (Fundraiser[] memory coll) {    \n        require (offset <= fundraisersCount(), \"offset out of bounds\");\n        uint256 size = fundraisersCount() - offset;\n        size = size < limit ? size : limit;\n        size = size < maxLimit ? size : maxLimit;\n        coll = new Fundraiser[](size);\n\n        for (uint256 i = 0; i < size; i++) {\n            coll[i] = _fundraisers[offset + i];\n        }\n\n        return coll;    \n    }\n}",
  "sourcePath": "/Users/ac12644/Desktop/Fundraiser_Dapp/contracts/FundraiserFactory.sol",
  "compiler": {
    "name": "solc",
    "version": "0.8.14+commit.80d49f37.Emscripten.clang"
  },
  "schemaVersion": "3.4.4",
  "updatedAt": "2022-06-01T11:18:28.517Z",
  "networkType": "ethereum",
  "devdoc": {
    "kind": "dev",
    "methods": {},
    "version": 1
  },
  "userdoc": {
    "kind": "user",
    "methods": {},
    "version": 1
  }
}